:100000000C9401010C9429010C9429010C94650FA6
:100010000C94650F0C94650F0C9429010C94290124
:100020000C9429010C9429010C9429010C942901A8
:100030000C9429010C9429010C9429010C94290198
:100040000C941B0F0C9429010C94D60D0C94B00D3C
:100050000C9429010C9429010C9429010C94290178
:100060000C94F50F0C94290105A84CCDB2D44EB9CF
:100070003836A9020C50B9918688083CA6AAAA2A4B
:10008000BE000000803F07634236B79BD8A71A39ED
:10009000685618AEBAAB558C1D3CB7CC5763BD6DD6
:1000A000EDFD753EF6177231BF000000803F08007D
:1000B0000000BE922449123EABAAAA2ABECDCCCCE7
:1000C0004C3E00000080BEABAAAAAA3E0000000081
:1000D000BF000000803F0000000000084178D3BB53
:1000E0004387D1133D190E3CC3BD4282AD2B3E6800
:1000F000EC8276BED98FE1A93E4C80EFFFBE01C4F1
:10010000FF7F3F000000000044444F4F59594F4FBC
:10011000444459595348494654204E49474854206D
:1001200046554C4C202020434F4C4F524320534CBB
:100130004E5443534F554E44432020434F50435257
:10014000434F44454320434846444320435246449A
:100150004320464144455341564544205345544964
:100160004E47414C4C2020205245544F5244534559
:1001700054494E4744454641554C4552524F5220F2
:100180000020204F4646002020204F4E2020204FA8
:100190004646202020204F4E53594E434544542D6F
:1001A0004420202000000000240027002A00000036
:1001B0000008000201000003040700000000000026
:1001C000000000000000250028002B0000000000B7
:1001D0002300260029000404040404040404020289
:1001E00002020202030303030303010204081020B6
:1001F0004080010204081020010204081020DE1FC4
:10020000D41F11241FBECFEFD8E0DEBFCDBF25E045
:10021000AAE2B3E001C01D92A739B207E1F713E0EB
:10022000A0E0B1E0E0EFFCE402C005900D92AA323C
:10023000B107D9F710E0C0E0D1E004C02197FE017A
:100240000E943325CF3FD107C9F70E9482120C9438
:100250006B260C9400004AE050E0BC0184E795E076
:100260000C94410B4AE050E0BC018BEC94E00C9400
:10027000410B0F931F93CF93DF931F92CDB7DEB740
:100280008C0169830E94BF216981681741F0C80110
:100290000F90DF91CF911F910F910C94C7210F9078
:1002A000DF91CF911F910F9108958F929F92AF92FE
:1002B000BF92CF92DF92EF92FF920F931F93CF9353
:1002C000DF93CDB7DEB72C970FB6F894DEBF0FBE25
:1002D000CDBFF62E6A01811170C0CE0101960E9439
:1002E00041118E81809341032D8120933E033C81F7
:1002F00030933D034AE0642F0E94FF24E82FA92F8A
:10030000B0E0AC57BD4F8C918F83F0E0EC57FD4FC0
:1003100080818887822F0E94FF24E92FF0E0EC572C
:10032000FD4F90819987E82FF0E0EC57FD4F8081D9
:100330008A87832F0E94FF24E92FF0E0EC57FD4FBE
:1003400090819B87E82FF0E0EC57FD4F80818C87F0
:1003500020913B0320FF28C0832F6CE00E94FF24E4
:10036000592F892F642F0E94FF24A82FB0E0AC578B
:10037000BD4F4C913C3031F0E92FF0E0EC57FD4F90
:10038000808101C08AED8B873C3011F0842F01C041
:1003900080E623FB222720F921117FC05A3010F478
:1003A0003C3009F4242F2C878E01095F1F4FF80180
:1003B00080E090E02F2D30E089C0813009F06FC0DF
:1003C000CE0101960E9441118E81809341038D815F
:1003D00080933E038C8180933D03298130E020533C
:1003E000384F0AE010E0C901B8010E940B25E82F40
:1003F000F0E0EC57FD4F80818F83C90164E670E027
:100400000E940B25B8010E940B25E62FF0E0EC5767
:10041000FD4F8081888790913B038A812B813AE050
:10042000632F91FF1EC00E94FF24E82FA92FB0E088
:10043000AC57BD4F8C918B87F0E0EC57FD4F80811E
:100440008C87822F0E94FF24E92FF0E0EC57FD4FAC
:1004500090819987E82FF0E0EC57FD4F80818A87E3
:10046000A3CF0E94FF24E82FA92FB0E0AC57BD4FC7
:100470008C918987F0E0EC57FD4F80818A87822F2D
:100480000E94FF24E92FF0E0EC57FD4F90819B87FD
:10049000E82FF0E0EC57FD4F80818C8785CF8330CB
:1004A00009F082CFD9011696CE010796EE91EA3572
:1004B00028F4F0E0EC57FD4F408101C040E0FC0122
:1004C0004193CF01A217B30789F76ECFA901082E78
:1004D00002C0559547950A94E2F740FF03C040815A
:1004E00041604083019631968630910579F75B989B
:1004F0004E01FDE08F0E911CF801A1908F01E12CBF
:10050000F12CB12CB5010E2C02C0759567950A949B
:10051000E2F76170772784E00E94310E61E082E0AB
:100520000E94310E60E082E00E94310EFFEFEF1A70
:10053000FF0A28E0E216F10429F708151905E1F68B
:100540005B9AC114D10429F10D2C000CEE08FF08B0
:100550000E949D0E4B015C010E949D0EDC01CB01AF
:1005600088199909AA09BB09883E9340A105B105DC
:1005700098F381E0C81AD108E108F108E8EE8E0E80
:10058000E3E09E1EA11CB11CC114D104E104F104DE
:1005900019F72C960FB6F894DEBF0FBECDBFDF91D2
:1005A000CF911F910F91FF90EF90DF90CF90BF9070
:1005B000AF909F908F9008958330A1F09091C903E0
:1005C0009F5F9093C90370910301971305C00E9428
:1005D00055011092C90308952EE732E040E050E043
:1005E00060E083E00C9455010C94BF210F931F939E
:1005F000CF93DF93CDB7DEB727970FB6F894DEBF62
:100600000FBECDBF8091430390914403892B09F421
:1006100053C00E949D0E0091CA031091CB032091FC
:10062000CC033091CD03DC01CB01801B910BA20BDD
:10063000B30BC297A105B10560F3F894E0914303B1
:10064000F091440381918F8385B180628E8385B15F
:100650008F7D8D838D818C8388E08B8382E190E018
:100660009A8389835E811F812B813C814D816981C1
:100670007A81A5E2B0E0CB012D9A17FD352F2A959E
:1006800000003C93342F31F0111F00C02D9800C0A2
:100690000000F2CF28E011912D9800C000008A954B
:1006A00059F778940E949D0E6093CA037093CB0310
:1006B0008093CC039093CD0327960FB6F894DEBFBA
:1006C0000FBECDBFDF91CF911F910F9108956AE0CA
:1006D0000E94FF2420E1829F900D1124892F08950C
:1006E0001092360310924603109245031092350380
:1006F0000895EF92FF920F931F93CF93DF9385306E
:10070000910561F08630910561F08730910561F0C7
:100710008830910561F0CFEFDFEF0BC0C0E0D0E093
:1007200008C0C1E0D0E005C0C2E0D0E002C0C3E034
:10073000D0E09C013327F901E255FE4F8491F90185
:10074000E651FE4F0491F901EA52FE4F14919E01C9
:100750002B533C4F7901112371F081110E94080E37
:10076000E12FF0E0EE0FFF1FE453FE4FA591B4918F
:10077000EC91E02391F4F7018081813011F080E069
:100780003DC0CF54DC4F8881813019F4188280E05D
:1007900001C081E0F701108231C0F70180818E0134
:1007A000000F111F000F111F81110CC081E0F70114
:1007B00080830E94C20EF801EB54FC4F608371836A
:1007C000828393830E94C20EF801EB54FC4F008198
:1007D000118122813381DC01CB01801B910BA20BA3
:1007E000B30B853F9140A105B10548F2CF54DC4FD2
:1007F00088818111C4CF81E0888382E0DF91CF912D
:100800001F910F91FF90EF900895FC01A091430379
:10081000B091440392E101900D929A95E1F70C9406
:10082000F60220E030E0E0914303F0914403E20F50
:10083000F31F8081A0914703B0914803A20FB31F1B
:100840009C91891710F48F5F03C0981710F48150A2
:1008500080832F5F3F4F2231310529F70C94F60238
:100860008F929F92AF92BF92CF92DF92EF92FF92C0
:10087000CF93C82F682F70E080E090E00E94A02006
:1008800027E433E647E15DE30E9401210E94422212
:1008900020E030E04FEF52E40E9401214B015C0167
:1008A000C535E0F420E030E04FEF52E40E94D6215D
:1008B0000E94B922CC24D62EE72EF82EA501940151
:1008C00060E070E08FEF92E40E94D5210E94B9228F
:1008D000DB0199278827BC01CD0122C09B01AC0117
:1008E00060E070E08FEF92E4CA3A40F40E94D521B4
:1008F0000E94B9227B01DD24CC2408C00E94D521AE
:100900000E94B922CC24D62EE72EF82E20E030E02B
:100910004FEF52E4C501B4010E94D6210E94B922D2
:100920006C297D298E299F29CF91FF90EF90DF9030
:10093000CF90BF90AF909F908F90089523E0829FBB
:10094000C001112420E030E040E050E0FA01E80F5F
:10095000F91FE858FD4F7081E0914303F091440383
:10096000E20FF31FE40FF51F70834F5F5F4F4330BB
:10097000510561F72D5F3F4F2930310529F783E09D
:10098000689FB001112480E090E0FC01E60FF71FA2
:10099000E858FD4F4081E0914303F0914403E20F9A
:1009A000F31FE80FF91F408301968330910569F723
:1009B0002D5F3F4F2231310531F70C94F602CF9273
:1009C000DF92EF92FF9250E0EFEFF3E060E070E033
:1009D00080E092E02091000140E4249F90011124E6
:1009E00020937C0020917A00206420937A0020914B
:1009F0007A0026FDFCCF40917800A09179009C01FF
:100A0000369527959695879596958795280F391F42
:100A1000842F90E09A2B9695879596958795820FCF
:100A2000931F6817790728F08E179F0718F4FC01A9
:100A300001C0BC015F5F503869F6CB018E1B9F0B74
:100A4000E091B003E83090F421E02E0F2093B00342
:100A5000F0E0EE0FFF1FE056FC4F91838083E0EA49
:100A6000F3E040E050E02FEF33E010C09093A1039B
:100A70008093A00321E02093B003F1CF46175707DE
:100A800008F4AB0163E0E03BF60739F06191719146
:100A90006217730798F79B01F1CFBA01621B730BC2
:100AA0006230710580F04217530769F0AC01421BB8
:100AB000530B9A014FEF429FC001439F900D1124A9
:100AC0000E940B2502C060E070E080E090E00E9490
:100AD000A0206B017C0120E030E0A9010E949B2056
:100AE0008823C1F020E030E04FE753E4C701B601AE
:100AF0000E94472220E030E040E05FEB0E94272385
:100B0000A70196010E9401210E9477230E94B92229
:100B1000862F01C080E0FF90EF90DF90CF90089586
:100B2000CF92DF92FF920F931F93CF93DF9300D06A
:100B300000D000D0CDB7DEB7F82E6091380380E04A
:100B400090E00E94390160914A0381E090E00E94A8
:100B500039016091370382E090E00E943901609191
:100B60002E0383E090E00E9439016091490384E004
:100B700090E00E94390180914A03823029F08091EF
:100B80004A03833031F513C000E010E0E0914303E5
:100B9000F0914403E00FF11F6081C80105960E94A7
:100BA00039010F5F1F4F0231110581F7E8CF00E0D7
:100BB00010E0E0914703F0914803E00FF11F6081DE
:100BC000C80147960E9439010F5F1F4F023111057E
:100BD00081F76091040189E290E00E9439016091FF
:100BE00042038AE290E00E94390160913C038BE26B
:100BF00090E00E94390160913B038CE290E00E94FA
:100C000039019FE2C92E93E0D92E0DE210E0D60102
:100C10006D916D01C8010E9439010F5F1F4F0333B1
:100C20001105A9F76091030183E390E00E94390167
:100C30006091020184E390E00E94390160913A03DF
:100C400085E390E00E9439016091010186E390E024
:100C50000E9439016091390387E390E00E943901D5
:100C6000F1103EC0E2E6F1E08E010F5F1F4FD801A8
:100C7000680186E0F82EF00E84918D933196FA1279
:100C8000FBCFE0910501F091060198014EEE52E094
:100C900060E083E00995ECE5F1E0D80184918D9363
:100CA0003196FA12FBCFE0910501F091060198010F
:100CB0004EEE52E060E083E00995E6E5F1E08491D4
:100CC000D8018D938D013196FA12F9CFE09105018B
:100CD000F091060196014EEE52E060E083E0099546
:100CE00026960FB6F894DEBF0FBECDBFDF91CF9131
:100CF0001F910F91FF90DF90CF900895AF92BF9218
:100D0000CF92DF92EF92FF920F931F93CF93DF93D7
:100D1000CDB7DEB768970FB6F894DEBF0FBECDBF74
:100D20008C017B01DC0111968C9111978130D9F4F3
:100D300085E591E0909306018093050182E0809320
:100D40004A03129680E090E02D91E0914303F091E8
:100D50004403E80FF91F2083019682319105A1F722
:100D60000E94F6024FC48230D1F485E591E0909361
:100D700006018093050183E080934A03D80112960F
:100D800080E090E02D91E0914703F0914803E80F57
:100D9000F91F2083019682319105A1F733C4803178
:100DA00009F08DC081E080935E0488E68093800422
:100DB00010925F041092810460E088E695E00E9442
:100DC0007B0DF80182810E946703682F88E695E019
:100DD0000E947B0DD80113968C910E946703682FA7
:100DE00088E695E00E947B0DF80184810E946703EC
:100DF000682F88E695E00E947B0D86E090E00E94D7
:100E00007D12D80115968C910E946703682F88E6A1
:100E100095E00E947B0DF80186810E946703682F90
:100E200088E695E00E947B0DD80117968C910E9470
:100E30006703682F88E695E00E947B0D60E088E6F6
:100E400095E00E947B0D0E942012F80180858E01A2
:100E50000F5F1F4F833249F5EEE9F1E06801D801D9
:100E600046E0B42EB00E84918D933196BA12FBCF2A
:100E7000E0910501F091060198014EEE52E060E02C
:100E800083E00995E8E9F1E08491D6018D936D0145
:100E90003196BA12F9CFE0910501F091060198015F
:100EA0004EEE52E060E083E009958AE0E2E6F2E08F
:100EB000D80101900D928A95E1F7C80110C38131E4
:100EC00009F0F4C0D80112968C911297833209F080
:100ED00099C319968C911997833209F093C3179689
:100EE0008C911797813009F052C013968C9113970B
:100EF00080933A0314968C9114978093020115966F
:100F00008C9115978093390316968C9180930101EB
:100F100080913B03846080933B0381E00E949005B5
:100F2000EAE1F1E07E01B3E1EB0EF11CD701BE2C4A
:100F3000CF2C36E0D32EDE0C84918D933196DA12CD
:100F4000FBCFE0910501F091060197014EEE52E0D2
:100F500060E083E00995E4E1F1E0D70184918D93AD
:100F60003196DA12FBCFE0910501F091060197016D
:100F70004EEE52E060E083E00995E2E9F1E0849111
:100F8000D7018D937D013196DA12F9CF4AC08111D4
:100F900053C010923A0386E1809302011092390304
:100FA00088E08093010180913B038B7F80933B031A
:100FB00081E00E949005EAE1F1E07E01B3E1EB0EF1
:100FC000F11CD701BE2CCF2C26E0D22EDE0C849152
:100FD0008D933196DA12FBCFE0910501F091060175
:100FE00097014EEE52E060E083E00995E4E1F1E024
:100FF000D70184918D933196DA12FBCFE0910501F0
:10100000F091060197014EEE52E060E083E0099511
:10101000ECE8F1E08491D7018D937D013196DA12ED
:10102000F9CFE0910501F09106012B2D3C2D4EEEFC
:1010300052E060E083E00995F8018085823008F095
:10104000E1C295E190934A03811102C081E001C0A1
:1010500083E180930301ECE2F1E09E012D5E3F4FBE
:10106000D90186E0820F94919D9331968A13FBCF2C
:10107000E0910501F091060148EE53E060E083E065
:101080000995FE013396CE014596DF0112971C9219
:1010900011961C9210823396E817F907B1F7CE012A
:1010A00001960E9405040E947003ACC2823109F0CF
:1010B0008BC0D80112968C91129781112FC0139674
:1010C0009C9180913B03992311F0816001C08E7F38
:1010D00080933B0380913B039E012F5F3F4FE09144
:1010E0000501F091060180FF09C086E0D9011D923B
:1010F0008A95E9F781E0898382E008C086E0D9011A
:101100001D928A95E9F782E0898384E08A8388E4E6
:101110008B8380E28C838D838E836FC2813041F517
:10112000F801938180913B03992311F0826001C003
:101130008D7F80933B0380913B039E012F5F3F4F48
:1011400081FF0BC0EEE0F1E0D90186E0820F9491BF
:101150009D9331968A13FBCF4CC2E8E0F1E0D901B0
:1011600086E0820F94919D9331968A13FBCF41C202
:10117000833009F047C2D80113969C9180913B03BC
:10118000992311F0886001C0877F80933B03809191
:101190003B039E012F5F3F4F83FF0BC0E6E8F1E06A
:1011A000D90186E0820F94919D9331968A13FBCFEB
:1011B00020C2E0E8F1E0D90186E0820F94919D938E
:1011C00031968A13FBCF15C28F3109F066C0F80142
:1011D00084898A3040F428EE33E0829F7001839F37
:1011E000F00C112404C098EEE92E93E0F92E86E06D
:1011F000ECE6F2E0DE01119601900D928A95E1F79E
:10120000D8011296CE0101965C016E0197E0C90EDD
:10121000D11CF501EC15FD0519F08D918193FACFE4
:10122000E0910501F09106019E012F5F3F4FA7015C
:1012300060E083E00995D80155968C9155978130EF
:1012400009F0E0C11896FE013196EC15FD0519F084
:101250008D918193FACFE0910501F09106019E01F5
:101260002F5F3F4FA70160E083E00995F801868971
:10127000813009F0C7C13E96AC14BD0429F08191BC
:10128000D5018D935D01F8CFE0910501F091060144
:101290009E012F5F3F4FA701B2C1803209F0EBC022
:1012A00025E531E03093060120930501F801928194
:1012B0009130E1F410924A03E381E093490393E40F
:1012C00099838A8384E0E89FF0011124E955FE4F59
:1012D00080818B8381818C8382818D8383818E83C6
:1012E0009E012F5F3F4F44EF51E0C0C0923081F428
:1012F00086E080934A03E0E5F1E09E012F5F3F4FD7
:10130000D901820F94919D9331968A13FBCFACC083
:10131000933041F583818093040190914A03973083
:1013200081F48A3219F421EA31E09EC08A3019F43E
:1013300025E931E099C0853109F064C12BE931E03C
:1013400093C087E080934A03EAE4F1E09E012F5FB7
:101350003F4FD90186E0820F94919D9331968A1375
:10136000FBCF82C0943009F03DC0E381E09342039B
:10137000E11103C0109240030EC0E13019F4E09374
:10138000400309C0E23039F481E090913F039111AC
:1013900080E08093400380914A039E012F5F3F4F7E
:1013A000883091F480E289838A83B4E0EB9FF00176
:1013B0001124EB57FE4F80818B8381818C83828146
:1013C0008D8383818E8350C088E080934A03E4E458
:1013D000F1E0D90186E0820F94919D9331968A13B2
:1013E000FBCF42C0953089F48AE080934A03EEE354
:1013F000F1E09E012F5F3F4FD90186E0820F94916B
:101400009D9331968A13FBCF2FC09630D1F4F8010B
:1014100083818093040190914A03943109F481CF30
:1014200084E180934A03E2E3F1E09E012F5F3F4FA6
:10143000D90186E0820F94919D9331968A13FBCF58
:1014400013C0973009F0DEC08BE080934A03E8E3D5
:10145000F1E09E012F5F3F4FD90186E0820F94910A
:101460009D9331968A13FBCF48EE53E060E083E012
:101470000E945501C7C08132A9F4F8013296AFE24B
:10148000B3E083E0A533B80719F081918D93F9CFCC
:1014900081E00E949005E0910501F09106012FE2A4
:1014A00033E0ABC08232F1F4CE010196DC012AE0D8
:1014B000280F1D922A13FDCF23E2298322E22A83DB
:1014C00026E72B8322E32C833EE23D832E8322E713
:1014D0002F8326E6288720E2298724E22A87F7013E
:1014E000099590C0833321F480E00E9490058AC062
:1014F000843309F071C01092380310924A0310929D
:10150000370310922E031092490385E18093040162
:101510001092420310923C0381E08093030186E124
:101520008093020110923A0388E0809301011092A7
:10153000390310923B0386E0E2E7F2E0DE015396C6
:1015400001900D928A95E1F7AFE2B3E0FE01739648
:1015500086E08E0F91919D938E13FCCFE4E7F1E02E
:101560008E010F5F1F4FD801D02EE12E86E0F82E9E
:10157000F00E84918D933196FA12FBCFE091050124
:10158000F091060198014EEE52E060E083E009958B
:10159000EEE6F1E0D80184918D933196FA12FBCFFB
:1015A000E0910501F091060198014EEE52E060E0F5
:1015B00083E00995E8E6F1E08491D8018D938D01EF
:1015C0003196FA12F9CFE0910501F09106012D2D27
:1015D0003E2D4EEE52E013C0EAE7F1E09E012F5F90
:1015E0003F4FD90186E0820F94919D9331968A13E3
:1015F000FBCFE0910501F091060148EE53E060E079
:1016000083E0099568960FB6F894DEBF0FBECDBF94
:10161000DF91CF911F910F91FF90EF90DF90CF90CE
:10162000BF90AF900895CF92DF92EF92FF920F9309
:101630001F93CF93DF93EC010E94C20E0C811D819A
:101640002E813F816B017C01C01AD10AE20AF30AA4
:10165000088119812A813B810C151D052E053F0546
:1016600030F46C837D838E839F8381E001C080E0B2
:10167000DF91CF911F910F91FF90EF90DF90CF906E
:101680000895CF92DF92EF92FF920F931F93CF9323
:10169000DF936C017A018B01C0E0D0E0CE15DF054D
:1016A00089F0D8016D918D01D601ED91FC910190E9
:1016B000F081E02DC6010995892B11F47E0102C04D
:1016C0002196ECCFC701DF91CF911F910F91FF9031
:1016D000EF90DF90CF900895FC01538D448D252F1E
:1016E00030E0842F90E0821B930B541710F0CF96BC
:1016F000089501970895FC01918D828D981761F0EE
:10170000828DDF01A80FB11D5D968C91928D9F5F38
:101710009F73928F90E008958FEF9FEF0895FC01E3
:10172000918D828D981731F0828DE80FF11D858D96
:1017300090E008958FEF9FEF0895FC01918D228D29
:10174000892F90E0805C9F4F821B91098F739927AE
:1017500008958BEC94E00E949D0B21E0892B09F405
:1017600020E0822F0895FC01848DDF01A80FB11DB8
:10177000A35ABF4F2C91848D90E001968F739927C7
:10178000848FA689B7892C93A089B1898C918064B4
:101790008C93938D848D981306C00288F389E02D75
:1017A00080818F7D80830895EF92FF920F931F9326
:1017B000CF93DF93EC0181E0888F9B8D8C8D981304
:1017C00005C0E889F989808185FD24C0F62E0B8D3E
:1017D00010E00F5F1F4F0F731127E02E8C8DE81262
:1017E0000CC00FB607FCFACFE889F989808185FF24
:1017F000F5CFCE010E94B30BF1CF8B8DFE01E80F28
:10180000F11DE35AFF4FF0820B8FEA89FB8980813B
:10181000806207C0EE89FF896083E889F989808149
:101820008064808381E090E0DF91CF911F910F91E0
:10183000FF90EF900895CF93DF93EC01888D88237C
:10184000C9F0EA89FB89808185FD05C0A889B9892D
:101850008C9186FD0FC00FB607FCF5CF808185FF08
:10186000F2CFA889B9898C9185FFEDCFCE010E9476
:10187000B30BE7CFDF91CF91089580E090E0892B03
:1018800029F00E94A90B81110C9400000895209169
:101890002C0330912D032817390771F490912A03F6
:1018A00080912B03981741F0E0912A03F0E0EB5E62
:1018B000FB4F808190E008958FEF9FEF089508958A
:1018C0001F93CF93DF93DC015C962D913C915D9744
:1018D0002115310539F481E090E013969C938E93A5
:1018E00012973DC05196ED91FC91529750969C9164
:1018F0005097892F80951FB75E964C915E9741FB5C
:10190000772770F941FD6095F8944081772311F0B5
:10191000492B01C048234083E9012197F1F748E0B2
:10192000508160FF02C0592B01C058235083E90148
:101930002197F1F76695415099F7772321F090812F
:101940008923808303C08081982B90831FBF5C967E
:101950008D919C915D970197F1F721E030E0C901ED
:10196000DF91CF911F91089520912C0330912D0389
:101970002817390771F480912B0320912A0390E0F6
:10198000805C9F4F821B910960E470E00E941F25DC
:10199000089580E090E0089520912C0330912D036C
:1019A00028173907B9F490912A0380912B039817CF
:1019B00089F0E0912A03F0E0EB5EFB4F80812091FB
:1019C0002A0330E02F5F3F4F2F73332720932A03E2
:1019D00090E008958FEF9FEF089585ED8093BC0010
:1019E0008091BC0084FDFCCF1092A8040895409122
:1019F000F003262F30E0240F311D21323105DCF4B5
:101A00002091A8042430C9F4FC0180E090E08617FE
:101A100058F43091F0032191DC01A253BC4FA30F85
:101A2000B11D2C930196F3CF8091F003680F609362
:101A3000F00380E0089581E0089582E0089508951C
:101A4000E091AA048091A904E81730F4F0E0E5558C
:101A5000FB4F808190E008958FEF9FEF0895909164
:101A6000AA048091A904981750F4E92FF0E0E555F5
:101A7000FB4F208130E09F5F9093AA0402C02FEFBC
:101A80003FEFC90108958091A90490E02091AA0434
:101A9000821B91090895CF92DF92EF92FF920F93EC
:101AA0001F93CF93DF937C01262F972F8A0180917C
:101AB0005E04882391F0C62FD72F6E01C40ED51E69
:101AC000CC15DD0571F06991D701ED91FC91019084
:101AD000F081E02DC7010995F3CF642F822F0E947A
:101AE000F70CC801DF91CF911F910F91FF90EF90FC
:101AF000DF90CF900895CF93DF931F92CDB7DEB7DD
:101B0000698320915E042223D1F020918104203248
:101B100040F021E030E0FC013383228380E090E05C
:101B200015C080915F04E82FF0E0E05AFB4F9981E7
:101B300090838F5F80935F048093810405C061E090
:101B4000CE0101960E94F70C81E090E00F90DF91AA
:101B5000CF910895089580E090E008950E94662650
:101B60001F920F920FB60F9211242F933F934F9312
:101B70005F936F937F938F939F93AF93BF93EF93F5
:101B8000FF938BEC94E00E94B30BFF91EF91BF9118
:101B9000AF919F918F917F916F915F914F913F9105
:101BA0002F910F900FBE0F901F9018951F920F92BC
:101BB0000FB60F9211242F938F939F93EF93FF9360
:101BC000E091DB04F091DC048081E091E104F0918C
:101BD000E20482FD12C090818091E4048F5F8F73D4
:101BE0002091E504821751F0E091E404F0E0E55320
:101BF000FB4F958F8093E40401C08081FF91EF91AA
:101C00009F918F912F910F900FBE0F901F9018955D
:101C1000833081F028F4813099F08230A1F008956A
:101C20008730A9F08830B9F08430D1F480918000F9
:101C30008F7D03C0809180008F778093800008950E
:101C400084B58F7702C084B58F7D84BD089580915F
:101C5000B0008F7703C08091B0008F7D8093B0007B
:101C600008951F93CF93DF93282F30E0F901E255B9
:101C7000FE4F8491F901E651FE4FD491F901EA52E9
:101C8000FE4FC491CC23C9F0162F81110E94080E7B
:101C9000EC2FF0E0EE0FFF1FEE53FE4FA591B49135
:101CA0008FB7F894111105C09C91ED2FE095E923B1
:101CB00002C0EC91ED2BEC938FBFDF91CF911F9180
:101CC0000895CF93DF9390E0FC01E651FE4F2491FD
:101CD000FC01EA52FE4F8491882361F190E0880F65
:101CE000991FFC01EC55FE4FC591D491FC01EE53B8
:101CF000FE4FA591B491611109C09FB7F8948881F6
:101D0000209582238883EC912E230BC0623061F4EE
:101D10009FB7F8943881822F809583238883EC9134
:101D20002E2B2C939FBF06C08FB7F894E8812E2BE3
:101D300028838FBFDF91CF9108953FB7F8948091AA
:101D40005A0490915B04A0915C04B0915D0426B5A7
:101D5000A89B05C02F3F19F00196A11DB11D3FBFE3
:101D6000BA2FA92F982F8827820F911DA11DB11D71
:101D7000BC01CD0142E0660F771F881F991F4A956D
:101D8000D1F708952FB7F8946091560470915704D5
:101D900080915804909159042FBF08958F929F927B
:101DA000AF92BF92CF92DF92EF92FF920F931F9369
:101DB000CF93DF93EC016A017B0100E010E00C158A
:101DC0001D0559F10E94C20E688779878A879B8713
:101DD000E881F9810284F385E02DCE01099597FF12
:101DE00016C00E94C20E88849984AA84BB84DC0138
:101DF000CB0188199909AA09BB098C809D80AE8006
:101E0000BF8088159905AA05BB0510F306C0F70128
:101E100081937F010F5F1F4FD2CFC801DF91CF9118
:101E20001F910F91FF90EF90DF90CF90BF90AF90F8
:101E30009F908F9008951F920F920FB60F921124CA
:101E40002F933F938F939F93AF93BF9380915604AB
:101E500090915704A0915804B091590430915504C1
:101E600023E0230F2D3720F40196A11DB11D05C0DD
:101E700026E8230F0296A11DB11D209355048093DF
:101E8000560490935704A0935804B093590480913A
:101E90005A0490915B04A0915C04B0915D0401969A
:101EA000A11DB11D80935A0490935B04A0935C0420
:101EB000B0935D04BF91AF919F918F913F912F910E
:101EC0000F900FBE0F901F9018951F920F920FB694
:101ED0000F9211242F933F934F935F936F937F93B0
:101EE0008F939F93AF93BF93EF93FF93E0912C0356
:101EF000F0912D03309709F451C0968DA685B785D2
:101F0000858591FF04C09C91892329F447C09C9149
:101F1000892309F043C0A389B4899C918589809560
:101F200089238C93868997890197F1F7608D718D4C
:101F3000A685B785558538E020E0CB010197F1F7FC
:101F4000822F90E095958795282F4C91452309F095
:101F50002068315091F7868D81FD209580912B036B
:101F600090E001968F73992730912A03381749F032
:101F7000A0912B03B0E0AB5EBB4F2C9380932B035F
:101F800003C0868D8160868F828D938D0197F1F7D6
:101F9000A389B4899C918589892B8C93FF91EF91BA
:101FA000BF91AF919F918F917F916F915F914F9171
:101FB0003F912F910F900FBE0F901F901895E091B9
:101FC0002C03F0912D03E817F90769F4A389B4896C
:101FD0009C918589809589238C9310922D03109272
:101FE0002C0381E0089580E008951F920F920FB6B0
:101FF0000F9211242F933F934F935F936F937F938F
:102000008F939F93AF93BF93EF93FF938091B9000A
:10201000887F803609F49CC068F5883209F45BC07B
:1020200090F4803109F454C038F4882309F4F6C0E0
:10203000883009F44DC0F6C0883109F44CC08032B4
:1020400009F45DC0EFC0803409F468C048F48033FF
:1020500009F455C0883309F0E5C08093A604D8C0C0
:10206000803509F44FC0883509F45DC0883409F023
:10207000D9C0D6C0883909F4C7C0A8F4883709F494
:1020800067C038F4883609F463C0803709F460C04B
:10209000C9C0883809F4B8C0803909F45FC08038F5
:1020A00009F0C0C05BC0803B09F486C038F4803AB8
:1020B00009F466C0883A09F47FC0B4C0803C09F4D2
:1020C000A7C0883C09F4A4C0883B09F48AC0AAC010
:1020D0008091A30410C09091A5048091A404981746
:1020E00070F5E091A50481E08E0F8093A504F0E0E7
:1020F000EE57FB4F80818093BB0085EC86C08093B8
:10210000A6048EC0E091A50481E08E0F8093A50403
:102110008091BB00F0E0EE57FB4F80839091A504C7
:102120008091A4046EC0E091A50481E08E0F80939D
:10213000A5048091BB00F0E0EE57FB4F80838091B7
:10214000A70481116DC081E08093A20484EA61C07C
:1021500083E08093A80410921404CFCF80911404DC
:10216000803208F051C0E091140481E08E0F80931A
:1021700014048091BB00F0E0EC50FC4F8083BDCF95
:1021800085EC8093BC001092A804809114048032E6
:1021900030F4E0911404F0E0EC50FC4F10826091B8
:1021A000140470E0E091F203F091F30384EF93E004
:1021B00009951092140436C084E08093A80410920C
:1021C000F1031092F003E091EE03F091EF03099513
:1021D0008091F003811105C081E08093F00310929B
:1021E000CE03E091F10381E08E0F8093F103F0E0E4
:1021F000E253FC4F80818093BB009091F10380916A
:10220000F003981708F479CF85E88093BC000AC0E2
:1022100085EC8093BC001092A80404C01092A60420
:102220000E94ED0CFF91EF91BF91AF919F918F9123
:102230007F916F915F914F913F912F910F900FBEC2
:102240000F901F9018951092A80481E08093A70426
:102250001092A20461E082E10E94310E61E083E10C
:102260000E94310EE9EBF0E080818E7F80838081D7
:102270008D7F808388E48093B80085E48093BC00E0
:102280000895CF92DF92EF92FF920F931F93CF9317
:10229000DF93EC0181E080935E0488E68093800404
:1022A00010925F041092810460E088E695E00E943D
:1022B0007B0D0E94201287E090E00E94D71188E6F3
:1022C00095E00E942F0D8F77982F92959F701AEFAF
:1022D000082F919F000D112488E695E00E942F0D94
:1022E0009C01332794E0359527959A95E1F7F82ED0
:1022F000129FF00C112488E695E00E942F0D9C019E
:10230000332744E0359527954A95E1F7E82E129F4B
:10231000E00C112488E695E00E942F0D88E695E0F8
:102320000E942F0D9C01332754E0359527955A952F
:10233000E1F7D82E129FD00C112488E695E00E9478
:102340002F0D9C01332764E0359527956A95E1F7B9
:10235000C82E129FC00C112488E695E00E942F0D14
:102360009C01332774E0359527957A95E1F7129F04
:10237000800D11248883C982DA82EB82FC820D836E
:10238000CE01DF91CF911F910F91FF90EF90DF90E1
:10239000CF900895FC01908190539A3008F090E01E
:1023A000818180532AE0929F800D1124089590919D
:1023B000A8049111FCCF813208F080E291E0909363
:1023C000A8049093A7042FEF2093A6041092A504CD
:1023D000280F2093A4049093A3049091A304906DDC
:1023E0009093A3049091A204913061F41092A204FE
:1023F0009091A3049093BB009091BC0093FDF8CF03
:1024000095EC01C095EE9093BC009091A80491309A
:10241000E1F39091A504981710F48091A504A2E827
:10242000B4E02BEA34E0F9019E2F921B981718F4C0
:102430009D919193F9CF1092AA048093A9040895D5
:102440002091810490918004213208F04AC080914B
:10245000A8048111FCCF32E03093A80431E030931E
:10246000A7043FEF3093A6041092A5042093A40480
:10247000A0E6B4E042E854E0FA013E2F341B3217E4
:1024800018F43D913193F9CF1092A3042091A30445
:10249000990F922B9093A3049091A204913061F430
:1024A0001092A2049091A3049093BB009091BC0061
:1024B00093FDF8CF95EC01C095EE9093BC00909100
:1024C000A8049230E1F39091A6049F3F79F08091A7
:1024D000A604803241F08091A604803331F084E07C
:1024E00005C081E003C082E001C083E010925F0478
:1024F0001092810410925E040895682F88E695E09A
:102500000C947B0DCF93DF93CDB7DEB7C056D109C6
:102510000FB6F894DEBF0FBECDBF789484B582604D
:1025200084BD84B5816084BD85B5826085BD85B577
:10253000816085BD80916E00816080936E001092F5
:102540008100809181008260809381008091810070
:102550008160809381008091800081608093800001
:102560008091B10084608093B1008091B00081605F
:102570008093B00080917A00846080937A0080918B
:102580007A00826080937A0080917A0081608093E3
:102590007A0080917A00806880937A001092C1005E
:1025A000E091DB04F091DC0482E08083E091D704C9
:1025B000F091D8041082E091D904F091DA0480E11E
:1025C00080831092E304E091DF04F091E00486E060
:1025D0008083E091DD04F091DE048081806180835E
:1025E000E091DD04F091DE04808188608083E091D9
:1025F000DD04F091DE04808180688083E091DD0459
:10260000F091DE0480818F7D808361E08DE00E9407
:10261000610E61E082E00E94610E61E083E00E9451
:10262000610E61E084E00E94610E61E089E00E9439
:10263000610E60E089E00E94310E10928F051092C9
:102640008E0510928D0510928C0510928B051092BC
:102650008A058EE393E09093910580939005909185
:102660008005963108F057C02DE831E030938B0596
:1026700020938A052CE333E030938D0520938C055D
:1026800024E632E030938F0520938E052091680078
:10269000983050F031E09E3008F430E081E001C025
:1026A000880F3A95EAF701C084E0822B8093680096
:1026B000983038F09E3040F0963148F020E030E01D
:1026C00008C02DE630E005C02BE630E002C02CE665
:1026D00030E03093880520938705983030F481E00E
:1026E00001C0880F9A95EAF70EC0292F30E09E307E
:1026F00018F42850310902C02E50310981E001C080
:10270000880F2A95EAF7809389058091900590912A
:1027100091050197F1F780918E0590918F05892B96
:1027200021F180912C0390912D0325E084379207AD
:10273000E1F0009711F00E94DF0F809192058E7FEB
:102740008093920510922B0310922A0384E795E060
:1027500090932D0380932C03E0918705F0918805D9
:10276000908180918905892B808381E0809300018D
:1027700060E085E00E94610E60E086E00E94610EEC
:1027800060E087E00E94610E60E088E00E94610ED8
:1027900060E08EE00E94610E2D9882E190E00E9440
:1027A00039259093440380934303009729F022E155
:1027B000DC011D922A95E9F782E190E00E9439251B
:1027C0009093480380934703009729F022E1FC018E
:1027D00011922A95E9F70E94F6021092AA0410922B
:1027E000A90410925F04109281040E942311109298
:1027F000AA041092A90410925F04109281040E940E
:102800002311BB24B394B0925E0408E600938004C5
:1028100010925F041092810487E090E00E947D1284
:1028200080E190E00E947D120E942012B0925E042E
:102830000093800410925F041092810460E088E6A7
:1028400095E00E947B0D0E94201281E090E00E94A2
:10285000D71188E695E00E942F0D87FF78C08DE1A3
:1028600093E00E94CA11182F88E193E00E94CA11D8
:10287000F82E80E293E00E94CA11E82E83E293E0F2
:102880000E94CA11D82E86E293E00E94CA11C82E77
:10289000B0925E040093800410925F041092810451
:1028A00060E088E695E00E947B0D0AE08C2D602FA9
:1028B0000E94FF24582F880F580F550F652F6C0D5D
:1028C00088E695E00E947B0D8D2D602F0E94FF24ED
:1028D000482F880F480F440F642F6D0D88E695E050
:1028E0000E947B0D8E2D602F0E94FF24382F880FB1
:1028F000380F330F632F6E0D88E695E00E947B0D35
:1029000060E088E695E00E947B0D8F2D602F0E948D
:10291000FF24982F880F980F990F692F6F0D88E665
:1029200095E00E947B0D63E088E695E00E947B0DB8
:10293000812F602F0E94FF24682F660F680F660F9B
:10294000610F88E695E00E947B0D0E94201280E0D6
:1029500090E00E94F4028093380381E090E00E94AE
:10296000F402182F80934A0382E090E00E94F40260
:102970008093370383E090E00E94F40280932E035B
:1029800084E090E00E94F402809349031230A9F49D
:1029900000E010E0E0904303F0904403E00EF11EED
:1029A000C80105960E94F402D7018C930F5F1F4F58
:1029B0000231110579F70E94F60280914A038330B3
:1029C000C9F400E010E0E0904703F0904803E00E07
:1029D000F11EC80147960E94F402F70180830F5F41
:1029E0001F4F0231110579F78091470390914803F9
:1029F0000E94050489E290E00E94F40280930401A1
:102A0000811103C085E1809304018AE290E00E9475
:102A1000F402809342038BE290E00E94F4028093E0
:102A20003C038CE290E00E94F40280933B039FE21F
:102A3000E92E93E0F92E67010DE210E0C8010E9433
:102A4000F402D6018D936D010F5F1F4F0333110503
:102A5000A9F783E390E00E94F4028093030184E3EA
:102A600090E00E94F4028093020185E390E00E94CE
:102A7000F40280933A0386E390E00E94F40280938C
:102A8000010187E390E00E94F4028093390380E023
:102A9000F70191917F01903209F48F5FF5E3EF1612
:102AA000F3E0FF06A9F798E4EDE0F1E08E010F5F97
:102AB0001F4FD80101900D929A95E1F75801E12C32
:102AC000F12CB6E08B2E912C3401681A710885E543
:102AD000482E512C4C0E5D1E26E0420E511C90E2F9
:102AE000E614F7040CF057C01201C12CD12CD4010C
:102AF000AE19BF096D96BFAFAEAF6D97F701E15D3F
:102B0000FC4F6F96FFAFEEAF6F976D962EAD3FAD5A
:102B10006D97C216D306C4F5FE01EB5AFF4F20E0B5
:102B200030E02E153F0514F0908305C0D901A15D5A
:102B3000BC4F8C9180832F5F3F4F319626303105FB
:102B400081F76F96AEADBFAD6F978C91F101829317
:102B50001F01F601EE0FFF1FEA0DFB1D40815181A1
:102B6000E0910501F09106019E012B5A3F4F60E074
:102B700083E0A0969FAFA0970995FFEFCF1ADF0AD9
:102B8000A0969FADA097C1CF3FEFE31AF30A8CE068
:102B9000A80EB11CA5CF7E01F9E4EF0EF11C86E072
:102BA000E5E5F1E0D70101900D928A95E1F7E0911A
:102BB0000501F0910601970140E951E060E083E0F2
:102BC0000995E0910501F09106012FE233E048EE0E
:102BD00053E060E083E0099580E293E0A0E0B0E09C
:102BE0008093670390936803A0936903B0936A038B
:102BF00010926B0310926C0310926D0310926E038F
:102C000084EF91E0A0E0B0E080935E0390935F03D7
:102C1000A0936003B0936103109262031092630368
:102C2000109264031092650380E590E0A0E0B0E0AC
:102C30008093550390935603A0935703B093580382
:102C40001092590310925A0310925B0310925C0386
:102C500089E190E0A0E0B0E080938F03909390032F
:102C6000A0939103B0939203109293031092940354
:102C700010929503109296038CE390E0A0E0B0E0F0
:102C80008093980390939903A0939A03B0939B0326
:102C900010929C0310929D0310929E0310929F032A
:102CA0008AE590E0A0E0B0E080937A0390937B0304
:102CB000A0937C03B0937D0310927E0310927F0358
:102CC00010928003109281038AEF90E0A0E0B0E0C0
:102CD0008093830390938403A0938503B09386032A
:102CE00010928703109288031092890310928A032E
:102CF00088EE93E0A0E0B0E080936F0390937003C0
:102D0000A0937103B0937203109273031092740333
:102D1000109275031092760370E9A72EBB24B3942A
:102D2000E6E0DE2ED00EF6E02F2E2E0C4E0125E131
:102D3000820E911C85E090E00E9479038093360317
:102D400086E090E00E9479038093460387E090E05C
:102D50000E9479038093450388E090E00E94790304
:102D600080933503809138038111F0C0809137033F
:102D7000811121C087E693E00E94130B882329F07C
:102D8000809166038F5F8093660380916603811153
:102D90000AC0E0910501F091060120E030E040E03A
:102DA00050E064E193C0813019F486C0833061F152
:102DB000109266038FC0813089F58EE593E00E9402
:102DC000130B882329F0809166038F5F809366033D
:102DD0008091660381110AC0E0910501F09106011E
:102DE00020E030E040E050E061E270C0813061F00E
:102DF0008230E1F6E0910501F091060120E030E03B
:102E000040E050E06CE061C0E0910501F091060106
:102E100020E030E040E050E062E157C0823009F04D
:102E200049C08091410390915D03981759F0109229
:102E3000660380935D0381E090913F03911180E0F0
:102E400080933F0385E593E00E94130B882329F0CC
:102E5000809166038F5F8093660390913F03E091BA
:102E60000501F091060180916603992379F0853080
:102E700038F461E070E001C0660F8A95EAF70FC090
:102E800020E030E040E050E060E21FC0853060F4B8
:102E900060E270E002C0759567958A95E2F720E0E0
:102EA00030E040E050E011C020E030E040E050E091
:102EB00061E00BC0833061F4E0910501F0910601FF
:102EC00020E030E040E050E060E080E0099502C0A2
:102ED00010923703C090360331E0C31204C00E9441
:102EE0007003C0923803809136038230C9F486E0C3
:102EF000EBE5F1E0D80101900D928A95E1F7E091C0
:102F00000501F0910601980148EE53E060E083E08E
:102F10000995109254030E94700380E8809338034F
:102F200080913503813039F40E947003809137031A
:102F30008F5F8093370380913503823009F0D8C2C8
:102F40000E94700380E00E949005D2C2813091F50A
:102F5000E0910501F091060120E030E040E050E012
:102F600064E1099580913603813021F40E94700359
:102F70001092380380913603823009F0B9C286E09E
:102F8000E1E6F1E0D80101900D928A95E1F7E09138
:102F90000501F0910601980148EE53E060E083E0FE
:102FA000099581E0809354030E94700380E8809328
:102FB00038039EC2803809F09BC2CE01815B9F4FCF
:102FC0000E94411180915303811128C063968FADF7
:102FD00063978093520364968FAD649780935103F7
:102FE00065968FAD65978093500362968FAD62971B
:102FF00080934F0361968FAD619780934E036096E7
:103000008FAD609790E08053984F64E670E00E9427
:103010000B2580934D0381E0809353038EE593E06D
:103020000E94130B882339F081E090914C03911199
:1030300080E080934C0386E0D7011D928A95E9F7E2
:1030400080915403811112C0809150032AE0622FB5
:103050000E94FF24F70195838483809151030E948D
:10306000FF24938382838091520334C030914D03B7
:103070002AE0832F622F0E94FF24D70115969C938C
:103080001597832F64E60E94FF24892F622F0E94E8
:10309000FF2414968C93149790913B0380914E03D8
:1030A00030914F0391FF0FC00E94FF2411969C9313
:1030B00011978C93832F0E94FF2413969C93139750
:1030C00012968C930BC0622F0E94FF24F70193830A
:1030D0008283832F0E94FF249183808380914C03FD
:1030E0008823D1F080914B03811106C080E2D70183
:1030F0008C9311968C9310C0813029F480E2F701F3
:103100008283838309C0823039F480E2D701149628
:103110008C93149715968C93E0910501F09106011C
:10312000970140E050E060E083E00995C0903603ED
:10313000B1E0CB120DC080915403811105C00E94F3
:1031400070031092380304C00E947003C0923803C9
:1031500080913603823009F046C02091540390914B
:103160003B03211120C021E0922790933B03E09183
:103170000501F091060190FF07C096E0D8011D926D
:103180009A95E9F7298307C096E0D8011D929A9590
:10319000E9F7898384E08A8388E48B8380E28C83E7
:1031A0008D838E831AC0892780933B0381FF09C0DA
:1031B000EEE0F1E0D80184918D933196DA12FBCFE5
:1031C00008C0E8E0F1E0D80184918D933196DA12DD
:1031D000FBCFE0910501F0910601980148EE53E024
:1031E00060E083E0099580914603813061F40E949C
:1031F000700380914B038F5F833019F080934B03F2
:1032000002C010924B0380914503813009F081C0C8
:103210000E94700380914B03811142C0809154033E
:1032200081110AC080915203882311F0815001C09E
:1032300087E1809352036DC080913B0381FD44C0C0
:1032400080914E03823099F420914D03822F90E0BB
:10325000B5010E941F25892B89F0822F837081F48C
:10326000822F64E60E94FF24992351F007C08D7FCE
:10327000843041F0893031F08FE105C08DE103C029
:103280008CE101C08EE190914F03923020F091507B
:1032900090934F033EC09130E1F580934F0339C0C6
:1032A0008130F1F48091540381110AC0809151035F
:1032B000882311F0815001C08BE38093510329C012
:1032C00080913B0381FDBCCF80914E03823010F092
:1032D000815003C08130E9F48CE080934E0319C023
:1032E0008230B9F48091540381110AC08091500357
:1032F000882311F0815001C08BE38093500309C0F3
:1033000080914D03882311F0815001C08EE180939C
:103310004D0380913503813009F098C00E947003FD
:1033200080914B03811150C08091540381110EC0D4
:1033300080915203873120F48F5F8093520386C0BF
:10334000873109F083C01092520380C080913B0303
:1033500081FD51C080914E03823099F420914D033C
:10336000822F90E0B5010E941F25892B91F0822FBA
:10337000837091F4822F64E60E94FF24992361F008
:1033800008C08D7F843059F0893049F08FE190E09A
:1033900008C08DE190E005C08CE190E002C08EE1B4
:1033A00090E020914F03422F50E04817590724F432
:1033B0002F5F20934F034AC04817590709F046C0B2
:1033C00081E080934F0342C0813009F5809154031E
:1033D00081110DC0809151038B3320F48F5F809356
:1033E000510334C08B3391F5109251032FC080915B
:1033F0003B0381FDAFCF80914E038C3010F48F5F83
:1034000003C08C3019F581E080934E031FC08230D9
:10341000E9F48091540381110DC0809150038B33E6
:1034200020F48F5F8093500311C08B3379F4109296
:1034300050030CC080914D038E3120F48F5F809338
:103440004D0304C08E3111F410924D0381E080933E
:103450005E0488E68093800410925F0410928104D9
:1034600060E088E695E00E947B0D809150030E9409
:103470006703682F88E695E00E947B0D80915103D9
:103480000E946703682F88E695E00E947B0D80917B
:1034900052030E946703682F88E695E00E947B0D27
:1034A00086E090E00E947D1280914F030E946703A6
:1034B000682F88E695E00E947B0D80914E030E9464
:1034C0006703682F88E695E00E947B0D80914D038D
:1034D0000E946703682F88E695E00E947B0D60E0FC
:1034E00088E695E00E947B0D0E9420121092530303
:1034F00020914A032111AFC0809149038B3058F1CC
:1035000080E090E042E1A0914703B0914803A80F0A
:10351000B91F2091490330E02B503109429FF0013F
:10352000439FF00D1124E80FF91FE85FFD4F208144
:103530002C9301968231910531F70E9411048091FC
:103540004603813009F05CC086E080934A03E0E5E1
:10355000F1E0D80144C020E030E0A0914703B091F1
:103560004803A20FB31F8091490390E0FC01EE0FC6
:10357000FF1F8E0F9F1FFC01E951FE4F80818C932E
:10358000A0914703B0914803A20FB31F8091490354
:1035900090E0FC01EE0FFF1F8E0F9F1FFC01E95111
:1035A000FE4F818111968C93A0914703B0914803FF
:1035B000A20FB31F8091490390E0FC01EE0FFF1FA3
:1035C0008E0F9F1FFC01E951FE4F828112968C9352
:1035D0002D5F3F4F2231310509F0BFCFAECF84912F
:1035E0008D933196DA12FBCFE0910501F09106013F
:1035F000980148EE53E060E083E009950E94700373
:1036000080914503813009F006C4809149038F5FA2
:10361000803119F08093490302C01092490383E47A
:10362000898380E28A83E0914903B4E0EB9FF00153
:103630001124E955FE4F80818B8381818C838281A7
:103640008D8383818E83E0910501F09106019801BD
:1036500044EF51E0D3C0223089F480914603813099
:1036600009F0D9C386E080934A03E0E5F1E0D80190
:1036700084918D933196DA12FBCF63C2233099F493
:103680000E94110480914603813009F0C4C386E092
:1036900080934A03E0E5F1E0D80184918D9331965F
:1036A000DA12FBCF4EC2263009F03EC088E993E023
:1036B0000E94130B882329F0809197038F5F8093DA
:1036C0009703809197030E94300420E030E0E0915E
:1036D0004703F0914803E20FF31F8083E091470313
:1036E000F0914803E20FF31F7183E0914703F091DB
:1036F0004803E20FF31F62832D5F3F4F22313105F4
:1037000031F70E94110480914603813009F083C390
:1037100087E080934A03EAE4F1E0D80184918D9335
:103720003196DA12FBCF0DC2273009F06DC08FE859
:1037300093E00E94130B882329F080918E038F5F02
:1037400080938E0350908E03612C712CC12C80913C
:103750000401E52DC89EE00D11248E2F0E94300437
:10376000E0914303F0914403E60DF71D8083E0915F
:103770004303F0914403E60DF71D7183E091430389
:10378000F0914403E60DF71D6283C394F3E06F0EDE
:10379000711C26E0C212DBCF0E94F6028091460324
:1037A0008130B9F488E080934A03E4E4F1E0D80181
:1037B00084918D933196DA12FBCFE0910501F0915F
:1037C0000601980148EE53E060E083E009950E940D
:1037D000700380914503813009F01DC3809104017D
:1037E000E0910501F09106018A3209F09AC28AE05F
:1037F0008093040125E931E048EE53E060E083E086
:1038000009950E94700307C3283009F0BBC090914E
:1038100042039330B8F48091410320918D0328171F
:1038200049F1923039F491E020914003211190E068
:103830009093400310928C0380938D0380918B03AF
:103840008A5E16C00E94DF04853CA0F083E893E006
:103850000E94130B882371F081E090914003911135
:1038600080E08093400310928C0380918B03835EF1
:1038700080938B03C0908C0335E03C1550F1809110
:103880008B030E943004909140032C2D911103C0B2
:10389000220F2C0D07C030E020953095922F990F04
:1038A000290F2E5E30E0E0914303F0914403E20FD4
:1038B000F31F8083E0914303F0914403E20FF31F71
:1038C00071838091430390914403FC01E20FF31F45
:1038D00062830E94F60288E993E00E94130B88231A
:1038E00019F0C394C0928C03809146038130B9F4DF
:1038F0008AE080934A03EEE3F1E0D80184918D934E
:103900003196DA12FBCFE0910501F09106019801A2
:1039100048EE53E060E083E009950E9470038091D7
:103920004503813009F077C2809142038F5F809315
:103930004203811103C0109240030BC0813039F063
:103940008230D9F481E090913F03911180E080931F
:10395000400380E289838A83E091420384E0E89F08
:10396000F0011124EB57FE4F80818B8381818C8382
:1039700082818D8383818E83E4C0843051F71092DD
:103980004203E7CF2A3009F062C080914103622FE1
:103990000E94FF24D7019C9311968C9311978091DC
:1039A0003E030E94FF2412969C93129713968C93C9
:1039B000139780913D030E94FF2414969C931497C3
:1039C00015968C93159720E030E08D9190E0E09172
:1039D0004703F0914803BF01620F731FAC01440F0E
:1039E000551F840F951F89599E4FFC014081FB0193
:1039F0004083E0914703F0914803BF01620F731FBA
:103A0000FC014181FB014183E0914703F0914803B0
:103A1000AF01420F531FFC018281FA0182832D5FA7
:103A20003F4F2231310589F60E94110480914603EF
:103A3000813009F0F0C18BE080934A03E8E3F1E0C4
:103A4000D80184918D933196DA12FBCF7AC02B3056
:103A500009F07DC08FE893E00E94130B882361F08A
:103A6000809182038D3020F48F5F8093820304C0A5
:103A70008D3011F41092820380913C03811151C06A
:103A800080918203811103C061E080E026C085300F
:103A9000F1F480E090E0E0914303F0914403E80FFB
:103AA000F91F1082E0914303F0914403E80FF91FDE
:103AB0001182E0914303F0914403E80FF91F128251
:103AC00003968231910539F70E94F6022AC08630AA
:103AD000D9F2873029F460E081E00E949E0421C081
:103AE0008C30E9F480E090E02FEFE0914303F09117
:103AF0004403E80FF91F2083E0914303F09144034E
:103B0000E80FF91F2183E0914303F0914403E80F8C
:103B1000F91F228303968231910539F7D5CF8D3075
:103B2000D1F280914603813009F075C184E1809320
:103B30004A03E2E3F1E0D80184918D933196DA12E1
:103B4000FBCFE0910501F0910601980155CE24319B
:103B500009F0F8C08AE793E00E94130B882339F03C
:103B600080917903873018F48F5F809379038FE811
:103B700093E00E94130B882329F0809178038F5FD4
:103B8000809378030E94DF04682F70E080E090E06B
:103B90000E94A22020E030E04AE252E40E94472244
:103BA0000E9477230E94B92286E0861B90917903B8
:103BB000981728F0809379031092770309C083E85F
:103BC00093E00E94130B882319F081E08093770320
:103BD00040917903473008F07AC030907803C12CC7
:103BE000642E712C86E090E02C01461857082C2D8D
:103BF000220F2C0D8C2D90E08415950574F5809185
:103C00000401F32DC89EF00D11248F2FA1962FAF24
:103C1000A197A0964FAFA0970E943004A1962FAD18
:103C2000A19730E0E0914303F0914403E20FF31FCA
:103C30008083E0914303F0914403E20FF31F71830B
:103C40008091430390914403FC01E20FF31F6283D0
:103C5000C394A0964FADA097CACF223148F4E0910B
:103C60004303F0914403E20FF11D10822F5FF5CF63
:103C700080917703811103C00E94F60228C046306C
:103C8000D9F320E085E090E086199709E22FEE0F46
:103C9000E20F422F50E04817590774F7F0E0A09167
:103CA0004303B0914403AE0FBF1F1C92A091430386
:103CB000B0914403AE0FBF1F11961C924091430375
:103CC00050914403E40FF51F12822F5FDFCF8091E4
:103CD0004603813009F07DCD85E180934A03ECE213
:103CE000F1E0D70184918D9331962A12FBCFE091B8
:103CF0000501F0910601970148EE53E060E083E092
:103D00000995FE013396DF0112971C9211961C92C1
:103D100010823396E815F905B1F7C8010E94050431
:103D200056CD8A3031F485E1809304012BE931E0EE
:103D300063CD853109F05BCD8AE28093040121EAED
:103D400031E05ACD253109F066C08CED92E09093B8
:103D5000060180930501809146038130C9F41092D9
:103D60004A03E6E2F1E0D80184918D933196DA12AC
:103D7000FBCF85E591E090930601809305019801C2
:103D800048EE53E060E083E00E9455010E9470031A
:103D900080914503813009F03EC09091030191303C
:103DA00009F483E18093030185E591E09093060196
:103DB0008093050180910301813049F4E0E2F1E054
:103DC000D80184918D933196DA12FBCF1CC08331D8
:103DD00009F017CDEAE1F1E03801D80184918D9323
:103DE0003196DA12FBCF98014EEE52E060E083E0AC
:103DF0000E945501E4E1F1E08491D3018D933D01EE
:103E00003196DA12F9CF98014EEE52E060E083E08D
:103E10000E945501F6CC80913B0382FF1BC08FE6C8
:103E200093E00E94130B8823A9F030913E03409148
:103E30003D0380910301833129F480914A03853148
:103E400009F4ACC02091020190913A0380E042173E
:103E500009F47FC08BEC94E00E949D0B18161906A4
:103E6000CCF54DB65EB648E150E0B8018BEC94E07D
:103E70000E94CE0E8981833241F4888D843229F4E8
:103E800062E371E0C8010E947E068BEC94E00E9420
:103E90009D0BEDB7FEB7E81BF90B0FB6F894FEBF0C
:103EA0000FBEEDBF2DB73EB72F5F3F4F39018BECF3
:103EB00094E00E949D0BAC01B3018BEC94E00E9456
:103EC000CE0E8BEC94E00E941B0C0FB6F8945EBEF5
:103ED0000FBE4DBE84E795E00E94B40C181619067B
:103EE000A4F54DB65EB648E150E0B80184E795E030
:103EF0000E94CE0E8981833241F4888D843229F468
:103F00006BE271E0C8010E947E0684E795E00E94A2
:103F1000B40CADB7BEB7A81BB90B0FB6F894BEBFB3
:103F20000FBEADBFEDB7FEB731963F0184E795E018
:103F30000E94B40CAC01B30184E795E00E94CE0E60
:103F40000FB6F8945EBE0FBE4DBE0E943D0C0C94A1
:103F50009A1639137FCF811116C085E180934A03E9
:103F600083E180930301FE013396DF0112971C92D7
:103F700011961C9210823396E815F905B1F7C80125
:103F80000E94050408C010924A0385E591E09093D1
:103F90000601809305010E9470035CCF209101010E
:103FA0009091390381E053CF86E093E090937505BB
:103FB0008093740584E795E00C94DF0F1092CE0493
:103FC0001092CD0488EE93E0A0E0B0E08093CF049F
:103FD0009093D004A093D104B093D20422EE32E0A7
:103FE0003093CC042093CB0425EC30E03093D804FC
:103FF0002093D70424EC30E03093DA042093D904E2
:1040000020EC30E03093DC042093DB0421EC30E042
:104010003093DE042093DD0422EC30E03093E004A2
:104020002093DF0426EC30E03093E2042093E10497
:104030001092E4041092E5041092E6041092E70452
:1040400010926B0510926A0580936C0590936D0534
:10405000A0936E05B0936F0524EF32E030936905AD
:104060002093680510927705109276058093780565
:1040700090937905A0937A05B0937B0586E093E051
:10408000909375058093740510928B0510928A05A4
:1040900010928D0510928C0510928F0510928E054E
:1040A0001092910510929005609192056E7F6D7F40
:1040B000609392056695617081E068278BE00E94AD
:1040C000310E61E08BE00E94610EE5EFF1E0E491DA
:1040D000E0938405E1EEF1E0E491F0E0EE0FFF1FE4
:1040E000EE53FE4F859194919093860580938505BC
:1040F00060E08AE00E94610E8091920581FD04C01B
:1041000061E08AE00E94310E8AE080938005E4EF4E
:10411000F1E0E491E0938105E0EEF1E0E491F0E07C
:10412000EE0FFF1FE453FE4F85919491909383050A
:104130008093820508950E94DD2008F481E00895AF
:10414000E89409C097FB3EF4909580957095619531
:104150007F4F8F4F9F4F9923A9F0F92F96E9BB27E7
:104160009395F695879577956795B795F111F8CF63
:10417000FAF4BB0F11F460FF1BC06F5F7F4F8F4FCE
:104180009F4F16C0882311F096E911C0772321F0C4
:104190009EE8872F762F05C0662371F096E8862F5C
:1041A00070E060E02AF09A95660F771F881FDAF7B3
:1041B000880F9695879597F90895990F0008550FE0
:1041C000AA0BE0E8FEEF16161706E807F907C0F09D
:1041D00012161306E407F50798F0621B730B840BA5
:1041E000950B39F40A2661F0232B242B252B21F47F
:1041F00008950A2609F4A140A6958FEF811D811D1F
:1042000008950E9414210C9485210E94772138F092
:104210000E947E2120F0952311F00C946E210C94C5
:10422000742111240C94B9210E94962170F3959F5A
:10423000C1F3950F50E0551F629FF001729FBB279D
:10424000F00DB11D639FAA27F00DB11DAA1F649F39
:104250006627B00DA11D661F829F2227B00DA11DEC
:10426000621F739FB00DA11D621F839FA00D611D72
:10427000221F749F3327A00D611D231F849F600D93
:10428000211D822F762F6A2F11249F5750409AF0BC
:10429000F1F088234AF0EE0FFF1FBB1F661F771F48
:1042A000881F91505040A9F79E3F510580F00C9413
:1042B0006E210C94B9215F3FE4F3983ED4F38695C8
:1042C00077956795B795F795E7959F5FC1F7FE2BB3
:1042D000880F911D9695879597F9089597F99F678F
:1042E00080E870E060E008959FEF80EC089500247E
:1042F0000A941616170618060906089500240A944B
:1043000012161306140605060895092E0394000CD0
:1043100011F4882352F0BB0F40F4BF2B11F460FF5F
:1043200004C06F5F7F4F8F4F9F4F089557FD905888
:10433000440F551F59F05F3F71F04795880F97FB69
:10434000991F61F09F3F79F0879508951216130623
:104350001406551FF2CF4695F1DF08C01616170652
:104360001806991FF1CF8695710561050894089587
:10437000E894BB2766277727CB0197F90895F99929
:10438000FECF92BD81BDF89A992780B50895262F5A
:10439000F999FECF1FBA92BD81BD20BD0FB6F8942A
:1043A000FA9AF99A0FBE019608955058BB27AA278A
:1043B0000E94ED210C9485210E94772138F00E9403
:1043C0007E2120F039F49F3F19F426F40C947421D7
:1043D0000EF4E095E7FB0C946E21E92F0E949621E4
:1043E00058F3BA17620773078407950720F079F42A
:1043F000A6F50C94B8210EF4E0950B2EBA2FA02D43
:104400000B01B90190010C01CA01A0011124FF2781
:10441000591B99F0593F50F4503E68F11A16F0407C
:10442000A22F232F342F4427585FF3CF469537957B
:104430002795A795F0405395C9F77EF41F16BA0B40
:10444000620B730B840BBAF09150A1F0FF0FBB1FEE
:10445000661F771F881FC2F70EC0BA0F621F731F37
:10446000841F48F4879577956795B795F7959E3F94
:1044700008F0B0CF9395880F08F09927EE0F979525
:10448000879508950E94EA22E3950C9413230E94D5
:104490005B220C9485210E947E2158F00E94772196
:1044A00040F029F45F3F29F00C946E2151110C94D7
:1044B000B9210C9474210E94962168F39923B1F3D9
:1044C000552391F3951B550BBB27AA27621773073A
:1044D000840738F09F5F5F4F220F331F441FAA1FCE
:1044E000A9F335D00E2E3AF0E0E832D0915050408A
:1044F000E695001CCAF72BD0FE2F29D0660F771F38
:10450000881FBB1F261737074807AB07B0E809F01D
:10451000BB0B802DBF01FF2793585F4F3AF09E3FA2
:10452000510578F00C946E210C94B9215F3FE4F3AF
:10453000983ED4F3869577956795B795F7959F5FE5
:10454000C9F7880F911D9695879597F90895E1E031
:10455000660F771F881FBB1F621773078407BA0790
:1045600020F0621B730B840BBA0BEE1F88F7E095EB
:1045700008950E949E2188F09F5798F0B92F99279F
:10458000B751B0F0E1F0660F771F881F991F1AF03E
:10459000BA95C9F714C0B13091F00E94B821B1E0CA
:1045A00008950C94B821672F782F8827B85F39F0C9
:1045B000B93FCCF3869577956795B395D9F73EF4D7
:1045C00090958095709561957F4F8F4F9F4F08957F
:1045D0000C9474210E949E21D8F3E894E0E0BB275C
:1045E0009F57F0F02AED3FE049EC06C0EE0FBB0FFD
:1045F000661F771F881F28F0B23A62077307840787
:1046000028F0B25A620B730B840BE3959A9572F7FC
:10461000803830F49A95BB0F661F771F881FD2F73A
:1046200090480C94F223EF93E0FF07C0A2EA2AED32
:104630003FE049EC5FEB0E94ED210E9485210F9045
:10464000039401FC9058E8E6F0E00C942524FA016C
:10465000EE0FFF1F309621053105A1F1611571059F
:1046600061F48038BFE39B0749F168949038810575
:1046700061F08038BFEF9B0741F099234AF5FF3F77
:10468000E1053105210519F1E8940894E795D90170
:10469000AA2329F4AB2FBE2FF85FD0F310C0FF5F21
:1046A00070F4A695E0F7F73950F019F0FF3A38F4B6
:1046B0009F779F930DD00F9007FC9058089546F078
:1046C0000C94742160E070E080E89FE308954FE768
:1046D0009F775F934F933F932F930E9483242F9153
:1046E0003F914F915F910E9401210C94A3230E945E
:1046F0009E21E8F09E37E8F09639B8F49E3848F4E9
:10470000672F782F8827985FF9CF869577956795DB
:1047100093959539D0F3B62FB1706B0F711D811D34
:1047200020F487957795679593950C94D5230C94F1
:10473000F0230C94B92129F416F00C946E210C94FA
:10474000B8210C9474210E949E21A8F39638A0F7FA
:1047500007F80F92E8942BE33AEA48EB5FE70E94F0
:1047600017210F920F920F924DB75EB70F920E94D2
:10477000CB24E6E8F0E00E94FE234F915F91EF9199
:10478000FF91E595EE1FFF1F49F0FE57E0684427B3
:10479000EE0F441FFA95E1F74195550B0E94452411
:1047A0000F9007FE0C9439240895882371F4772321
:1047B00021F09850872B762F07C0662311F4992794
:1047C0000DC09051862B70E060E02AF09A95660F3C
:1047D000771F881FDAF7880F9695879597F90895C0
:1047E0009F3F31F0915020F4879577956795B79565
:1047F000880F911D9695879597F90895DF93CF932C
:104800001F930F93FF92EF92DF927B018C016894CC
:1048100006C0DA2EEF010E941421FE01E894A59152
:104820002591359145915591A6F3EF010E94ED2117
:10483000FE019701A801DA9469F7DF90EF90FF90ED
:104840000F911F91CF91DF9108959F938F937F9345
:104850006F93FF93EF939B01AC010E940121EF91B5
:10486000FF910E94FE232F913F914F915F910C94F5
:1048700001219B01AC0160E070E080E89FE30C94B3
:1048800047220C946E210C94F0230E949E21D8F3B1
:104890009923C9F3940F511DA3F39150504094F004
:1048A00059F0882332F0660F771F881F91505040CF
:1048B000C1F79E3F51052CF7880F911D969587955E
:1048C00097F908955F3FACF0983E9CF0BB27869522
:1048D00077956795B79508F4B1609395C1F7BB0FCD
:1048E00058F711F460FFE8CF6F5F7F4F8F4F9F4FF6
:1048F000E3CF0C94B92116F00C94F0230C9474219E
:1049000068940C946E210E949E21A8F39923C1F310
:10491000AEF3DF93CF931F930F93FF92C92FDD2741
:1049200088232AF02197660F771F881FDAF720E087
:1049300030E040E85FEB9FE3883920F0803E38F0BC
:1049400021968F770E94D621EEEAF0E004C00E9403
:10495000D621EBEDF0E00E94FE238B01BE01EC01BD
:10496000FB2E6F5771097595771F880B990B0E9465
:10497000A22028E132E741E35FE30E941421AF2D3A
:104980009801AE01FF900F911F91CF91DF910E948E
:10499000ED210C948521FA01DC01AA0FBB1F9B01BC
:1049A000AC01BF5728F4222733274427507820C072
:1049B000B75190F4AB2F0024469537952795011CED
:1049C000A395D2F3002071F0220F331F441FB3953B
:1049D000DAF30ED00C94D52161307105A0E88A0776
:1049E000B94630F49B01AC01662777278827907879
:1049F000309621F020833183428353830895991B9D
:104A000079E004C0991F961708F0961B881F7A95C5
:104A1000C9F780950895AA1BBB1B51E107C0AA1FC7
:104A2000BB1FA617B70710F0A61BB70B881F991F4F
:104A30005A95A9F780959095BC01CD01089597FBF3
:104A4000072E16F4009407D077FD09D00E940B259D
:104A500007FC05D03EF4909581959F4F0895709581
:104A600061957F4F0895EE0FFF1F0590F491E02DA3
:104A70000994CF93DF938230910510F482E090E0A7
:104A8000E0919505F091960520E030E0C0E0D0E09F
:104A9000309711F14081518148175907C0F04817EC
:104AA000590761F482819381209719F09B838A834F
:104AB0002BC0909396058093950526C0211531054E
:104AC00019F04217530718F49A01BE01DF01EF01F4
:104AD0000280F381E02DDCCF2115310509F1281B7F
:104AE000390B2430310590F412968D919C911397D7
:104AF0006115710521F0FB019383828304C09093BB
:104B0000960580939505FD01329644C0FD01E20FA4
:104B1000F31F81939193225031092D933C933AC016
:104B20002091930530919405232B41F420910901A4
:104B300030910A0130939405209393052091070149
:104B4000309108012115310541F42DB73EB7409150
:104B50000B0150910C01241B350BE0919305F09152
:104B60009405E217F307A0F42E1B3F0B2817390713
:104B700078F0AC014E5F5F4F2417350748F04E0FB9
:104B80005F1F50939405409393058193919302C0C6
:104B9000E0E0F0E0CF01DF91CF9108950F931F93F4
:104BA000CF93DF93009709F48CC0FC0132971382F6
:104BB000128200919505109196050115110581F459
:104BC00020813181820F931F2091930530919405AC
:104BD0002817390779F5F0939405E093930571C090
:104BE000D80140E050E0AE17BF0750F412962D9167
:104BF0003C911397AD012115310509F1D901F3CF8E
:104C00009D01DA013383228360817181860F971FB2
:104C10008217930769F4EC0128813981260F371F29
:104C20002E5F3F4F318320838A819B8193838283D0
:104C3000452B29F4F0939605E093950542C0139611
:104C4000FC93EE931297ED01499159919E01240F27
:104C5000351FE217F30771F480819181840F951F4E
:104C6000029611969C938E938281938113969C93C6
:104C70008E931297E0E0F0E0D80112968D919C910E
:104C80001397009719F0F8018C01F6CF8D919C9144
:104C900098012E5F3F4F820F931F20919305309113
:104CA00094052817390769F4309729F4109296056E
:104CB0001092950502C013821282109394050093FE
:104CC0009305DF91CF911F910F91089581E090E0BE
:104CD000F8940C946B2611E0C0E0D1E004C0FE0112
:104CE0000E9433252196C130D107C9F7F894FFCF30
:104CF000010816011555010000970580001E000FE0
:104D0000000F000F000F002C011E000F000F000FFE
:104D1000002C0100001E000F000F002C01000000FD
:104D2000001E000F002C010000000000001E002CDF
:104D30000100000000000000002C01000000000045
:104D40000000000000202020202020542053455443
:104D50002044205345542000000080FF4000FF0005
:104D60001EFF007DFF00FF00000000FF00C8FF28BD
:104D7000283CFFFFFF20522D4C204C2D52464C4921
:104D800050434C41504348494C4C20524547554CA8
:104D900041544947485420204F464620204F4E203A
:104DA0004C4F4E205245442047524E424C55455997
:104DB000454C4F4F524E474359414E505245445037
:104DC00052504C20524E4250524E422047024220F6
:104DD00052024220520247000000FFFFFFC8FF209E
:104DE00000FF00FF00000000FF7DFF001EFF00FF2E
:104DF000008000FFAA00C8FF00C8FF0000FFFF00FE
:104E00000080FF001EFF0000FF0080FFFF8032FFD8
:104E1000FF0080FF8080FFFF8064FF80FF0000F0C4
:104E20000040D800808000D84000F00000FF00FF64
:104E30000300FF0A00F01900C8500064960032FF1A
:104E400003FF001EFF003CF00064B400B4B400FF98
:104E50001400231054696D652053792420202020EC
:104E6000202048454C4C4F2000FF0A000FFF202017
:104E700020202020FC60DAF266B6BEE0FEF60000DC
:104E80000000000000000000000000000000000022
:104E90000000000000000000000000000000000012
:104EA0000002C600FC00000000000000000000003E
:104EB0000000000000EE3E9C7A9E8EF66E0C7000A4
:104EC0001C002AFCCEE60AB61E387C0000760000E4
:104ED0000000D40B410B6C0B1B0C9D0B7B0B8F0B41
:104EE000000000007B0D4B0DAB0D1F0D430D2F0D72
:104EF000200D00000000600C410BAB0D5F0CB40CEA
:104F0000CC0C470C4D6172203231203230313800E8
:0A4F100030303A33313A30350000FA
:107E0000112484B714BE81FFF0D085E080938100F7
:107E100082E08093C00088E18093C10086E0809377
:107E2000C20080E18093C4008EE0C9D0259A86E02C
:107E300020E33CEF91E0309385002093840096BBD3
:107E4000B09BFECF1D9AA8958150A9F7CC24DD24C4
:107E500088248394B5E0AB2EA1E19A2EF3E0BF2EE7
:107E6000A2D0813461F49FD0082FAFD0023811F036
:107E7000013811F484E001C083E08DD089C08234E0
:107E800011F484E103C0853419F485E0A6D080C0E4
:107E9000853579F488D0E82EFF2485D0082F10E0AE
:107EA000102F00270E291F29000F111F8ED06801E7
:107EB0006FC0863521F484E090D080E0DECF843638
:107EC00009F040C070D06FD0082F6DD080E0C81688
:107ED00080E7D80618F4F601B7BEE895C0E0D1E017
:107EE00062D089930C17E1F7F0E0CF16F0E7DF06D8
:107EF00018F0F601B7BEE89568D007B600FCFDCFD4
:107F0000A601A0E0B1E02C9130E011968C91119780
:107F100090E0982F8827822B932B1296FA010C0160
:107F200087BEE89511244E5F5F4FF1E0A038BF0790
:107F300051F7F601A7BEE89507B600FCFDCF97BE46
:107F4000E89526C08437B1F42ED02DD0F82E2BD052
:107F50003CD0F601EF2C8F010F5F1F4F84911BD097
:107F6000EA94F801C1F70894C11CD11CFA94CF0C13
:107F7000D11C0EC0853739F428D08EE10CD085E9AC
:107F80000AD08FE07ACF813511F488E018D01DD067
:107F900080E101D065CF982F8091C00085FFFCCF94
:107FA0009093C60008958091C00087FFFCCF809118
:107FB000C00084FD01C0A8958091C6000895E0E648
:107FC000F0E098E1908380830895EDDF803219F02E
:107FD00088E0F5DFFFCF84E1DECF1F93182FE3DFCA
:107FE0001150E9F7F2DF1F91089580E0E8DFEE27F6
:047FF000FF270994CA
:027FFE00040479
:0400000300007E007B
:00000001FF
